:020000040800F2
:100000000000012035290008991D0008A51D0008E1
:10001000AB1D0008B11D0008B71D0008000000005E
:10002000000000000000000000000000BD1D0008EE
:10003000C91D000800000000D51D0008E11D0008D2
:100040007D2900087D2900087D2900087D290008F8
:100050007D2900087D2900087D2900087D290008E8
:100060007D2900087D2900087D2900087D290008D8
:100070007D2900087D2900087D2900087D290008C8
:100080007D2900087D2900087D2900087D290008B8
:100090007D2900087D2900087D2900087D290008A8
:1000A0007D2900087D2900087D2900087D29000898
:1000B000ED1D0008011E0008151E00087D2900081E
:1000C0007D2900087D2900087D2900087D29000878
:1000D0007D2900087D2900087D290008291E0008C7
:1000E0007D2900087D2900087D2900087D29000858
:1000F0007D2900087D2900087D2900087D29000848
:100100007D2900087D2900087D2900087D29000837
:100110007D2900087D2900087D2900087D29000827
:100120007D2900087D2900087D2900087D29000817
:1001300000000000000000000000000000000000BF
:1001400000000000000000000000000000000000AF
:10015000000000000000000000000000000000009F
:10016000000000000000000000000000000000008F
:10017000000000000000000000000000000000007F
:10018000000000000000000000000000000000006F
:10019000000000000000000000000000000000005F
:1001A000000000000000000000000000000000004F
:1001B000000000000000000000000000000000003F
:1001C000000000000000000000000000000000002F
:1001D000000000000000000000000000000000001F
:0401E0005FF8E0F1F3
:1001E40010B5054C237833B9044B13B10448AFF36D
:1001F40000800123237010BD2800002000000000AF
:10020400B04D000808B5034B1BB103490348AFF3D5
:10021400008008BD000000002C000020B04D000844
:1002240080B485B000AF78600B46FB704FF6FF7367
:10023400FB600023FB7223E0FB7A7A6813441B788B
:100244001A46FB685340FB600023BB7212E0FB6854
:1002540003F00103002B07D0FB685B0883F4204301
:1002640083F00103FB6002E0FB685B08FB60BB7A80
:100274000133BB72BB7A072BE9D9FB7A0133FB72DA
:10028400FA7AFB789A42D7D3FB68DAB2054B1A7034
:10029400FB681B0ADAB2044B1A7000BF1437BD4660
:1002A40080BC7047580500207E02002080B400AF57
:1002B400044BDB68034A43F48063D36000BFBD464C
:1002C40080BC70470010014080B500AFF72130209A
:1002D40000F008F99421312000F004F9F8213620C7
:1002E40000F000F985224621002000F04BF9142289
:1002F4004721002000F046F93F224A21002000F067
:1003040041F97B224C21002000F03CF92B224F21A3
:10031400002000F037F911225321002000F032F9B7
:1003240010225621002000F02DF90E225721002022
:1003340000F028F903225821002000F023F93F227D
:100344004A21002000F01EF95A224C21002000F01E
:1003540019F92B224F21002000F014F91122532106
:10036400002000F00FF910225621002000F00AF9B5
:100374000E225721002000F005F903225821002005
:1003840000F000F900BF80BD80B582B000AF034625
:10039400FB714F4BDB684E4A43F01003D3601E20C1
:1003A40002F04EFB4A4BDB68494A23F01003D3604A
:1003B400484BDB68474A23F01003D3600A2002F05D
:1003C4003FFB444BDB68434A43F01003D3600A20ED
:1003D40002F036FB402000F04FF93F4B1B781A46E1
:1003E400F221032000F0CEF83B4B5B781A46F32150
:1003F400032000F0C7F8F221032000F099F8374BEE
:100404001B781A46EA21032000F0BCF8334B5B78D2
:100414001A46EB21032000F0B5F8304B9B781A46BE
:10042400EC21032000F0AEF82C4BDB781A46ED21CA
:10043400032000F0A7F8294B1B791A46EE2103206C
:1004440000F0A0F8254B5B791A46EF21032000F059
:1004540099F8224B9B791A46F021032000F092F878
:100464001E4BDB791A46F121032000F08BF8EA21B8
:10047400032000F05DF80D21002000F033F82A215C
:10048400202000F02FF82721212000F02BF83F2115
:10049400282000F027F8FB7919462E2000F022F8D6
:1004A4000F4AFB7913700021352000F01BF8472018
:1004B40000F0E2F8482000F0DFF8FFF705FF0A201B
:1004C40002F0BEFA00F0F4F800BF0837BD4680BD64
:1004D400001001400008014000000020040000203A
:1004E4005905002080B582B000AF03460A46FB716F
:1004F4001346BB710D4BDB680C4A23F48063D36055
:10050400FB7963F03F03DBB2184600F0F7F9BB79DF
:10051400184600F0F3F9054BDB68044A43F48063A2
:10052400D36000BF0837BD4680BD00BF0010014046
:1005340080B584B000AF03460A46FB711346BB7115
:100544000F4BDB680E4A23F48063D360FB7943F0DE
:100554001003DBB2184600F0D1F9BB79184600F05D
:10056400CDF900F063F90346FB73054BDB68044ADD
:1005740043F48063D360FB7B18461037BD4680BDCF
:100584000010014080B582B000AF0346FB710B46FA
:10059400BB7113467B710F4BDB680E4A23F48063F7
:1005A400D360FB7943F02003DBB2184600F0A6F9D0
:1005B400BB79184600F0A2F97B79184600F09EF941
:1005C400044BDB68034A43F48063D36000BF0837FD
:1005D400BD4680BD0010014080B584B000AF034625
:1005E400FB71482000F048F8204BDB681F4A23F4D5
:1005F4008063D3603A2000F081F9FB791933DBB2D0
:10060400184600F07BF90123FB7308E0FB7B184AD2
:10061400D35C184600F072F9FB7B0133FB73FB7B60
:10062400172BF3D90023FB7308E0FB7B114AD35C3F
:10063400184600F063F9FB7B0133FB73FA7BFB790B
:100644009A42F2D3552000F059F9AA2000F056F945
:10065400064BDB68054A43F48063D360282000F02E
:10066400ABFD00BF1037BD4680BD00BF0010014088
:10067400DC4D00086005002080B582B000AF034661
:10068400FB710A4BDB68094A23F48063D360FB796E
:10069400184600F033F9054BDB68044A43F48063E1
:1006A400D36000BF0837BD4680BD00BF00100140C5
:1006B40080B500AF4220FFF7DFFF00BF80BD000020
:1006C40080B582B000AF0023FB714FF48051224803
:1006D40002F074FD0346002B09D101211F4802F0EA
:1006E4006DFD0346002B02D0FB790133FB714FF4FF
:1006F4008051194802F062FD0346002B09D1012103
:10070400164802F05BFD0346002B02D0FB7901334F
:10071400FB714FF48051104802F050FD0346002B4A
:1007240009D101210D4802F049FD0346002B02D0F6
:10073400FB790133FB71FB79012B07D901224FF4BB
:100744000071074802F051FD012300E00023184620
:100754000837BD4680BD00BF00100140000C0140B9
:100764000008014080B582B000AF00237B604320C5
:10077400FFF782FF012002F063F900237B6028E089
:100784000023FB704FF480511B4802F017FD034611
:10079400002B02D0FB780133FB704FF480511648D4
:1007A40002F00CFD0346002B02D0FB780133FB70F2
:1007B4004FF48051104802F001FD0346002B02D093
:1007C400FB780133FB70FB78012B06D87B6801337F
:1007D4007B607B68C72BD3D900E000BF7B68C82B44
:1007E40005D1064B1B780133DAB2044B1A7000BFF3
:1007F4000837BD4680BD00BF001001405D000020E9
:1008040080B400AF074BDB68064A23F02003D360B3
:10081400054BDB68044A43F48063D36000BFBD46E4
:1008240080BC7047000801400010014080B582B0D0
:1008340000AF0023BB710023FB7155E0BB795B0063
:10084400BB712D4BDB682C4A43F02003D360482056
:1008540000F0A0FC482000F09DFC482000F09AFC29
:10086400482000F097FC00237B718021224802F08D
:10087400A5FC0346002B02D07B7901337B718021D8
:100884001D4802F09BFC0346002B02D07B79013308
:100894007B718021184802F091FC0346002B02D0A2
:1008A4007B7901337B717B79012B04D9BB7943F0CC
:1008B4000103BB7103E0BB7923F00103BB710E4B51
:1008C400DB680D4A23F02003D360482000F062FC6B
:1008D400482000F05FFC482000F05CFC482000F059
:1008E40059FCFB790133FB71FB79072BA6D9BB7942
:1008F40018460837BD4680BD0008014080B584B065
:1009040000AF0346FB710023FB733AE097F907300D
:10091400002B06DA1E4BDB681D4A43F04003D3600C
:1009240005E01B4BDB681A4A23F04003D360184BE5
:10093400DB68174A43F02003D360482000F02AFC08
:10094400482000F027FC482000F024FC482000F058
:1009540021FCFB795B00FB710D4BDB680C4A23F037
:100964002003D360482000F015FC482000F012FC5E
:10097400482000F00FFC482000F00CFCFB7B013306
:10098400FB73FB7B072BC1D900BF1037BD4680BD6D
:100994000008014080B582B000AF0023FB7113E072
:1009A4000023BB710AE0FA79BB79184912010A44A1
:1009B400134400221A70BB790133BB71BB790F2B2E
:1009C400F1D9FB790133FB71FB790B2BE8D93C237B
:1009D4007B7106E00E4B1B781846FFF7D5FCFFF73A
:1009E40073FC7A790B4B1B689A42F3D80A4B1B7839
:1009F4001846FFF7C9FCFFF767FCFFF759FE054BE4
:100A040000221A6000BF0837BD4680BD9004002054
:100A1400740200205C0500208D04002090B583B092
:100A240000AF1B4BDB681A4A23F48063D360302089
:100A3400FFF764FFFFF7FAFE03461A46154B1A70D8
:100A4400144B1B785BB2002B02DA124B7F221A7014
:100A54000023FB710AE0FB795C1CFFF7E7FE034609
:100A64001A460C4B1A55FB790133FB71094B1B7861
:100A7400FA799A42EFD3064BDB68054A43F4806364
:100A8400D3604720FFF7F8FD00BF0C37BD4690BD8B
:100A9400001001406005002080B582B000AF264BF5
:100AA4001B7E142B03D0244B1B7E152B2DD104202D
:100AB40000F082FB204B1B7E152B02D11F4B002222
:100AC4001A7001224FF480611D4802F08EFB01224E
:100AD4004FF400711A4802F088FB1823FB7109E0F7
:100AE400FA79FB79183B1449895C164AD154FB798D
:100AF4000133FB71FA79104B1B78013B9A42EFDB0F
:100B040042F64471104800F021F80B4B00225A774A
:100B1400094B00221A77084B0022DA76064B002292
:100B24009A76054B00225A76034B00221A7600BFB0
:100B34000837BD4680BD00BF60050020440000208A
:100B440000080140900400200C00002080B582B011
:100B540000AF786039607B685A79234B1A707B68E0
:100B64001A79214B5A707B68DA781F4B9A707B682C
:100B74009A781D4BDA707B685A781B4B1A717B6824
:100B84001A78194B5A71184B01229A71164B042288
:100B9400DA713B681B0ADAB2134B1A723B68DAB299
:100BA400114B5A72104BFF229A720F4BFF22DA72CA
:100BB4000E4B0D4A1A600D4B1B680C211846FFF7AB
:100BC4002FFB0B4B1A78084B1A730A4B1A78064BF7
:100BD4005A730E20FFF700FDFFF7C4FDFFF768FD11
:100BE40000BF0837BD4680BD600500206C010020B1
:100BF400580500207E02002080B483B000AF034675
:100C0400FB71FB7903F00103002B06D0474BDB6833
:100C1400464A43F48053D36005E0444BDB68434ABF
:100C240023F48053D360FB7903F00203002B06D036
:100C34003E4BDB683D4A43F40053D36005E03B4B35
:100C4400DB683A4A23F40053D360FB7903F00403CE
:100C5400002B06D0354BDB68344A43F48043D36021
:100C640005E0324BDB68314A23F48043D360FB79DF
:100C740003F00803002B06D02C4BDB682B4A43F40B
:100C84000043D36005E0294BDB68284A23F4004382
:100C9400D360FB7903F01003002B06D0244BDB68F0
:100CA400234A43F04003D36005E0214BDB68204A2C
:100CB40023F04003D360FB7903F02003002B06D01C
:100CC4001B4BDB681A4A43F08003D36005E0184BE2
:100CD400DB68174A23F08003D360FB7903F04003F9
:100CE400002B06D0124BDB68114A43F48073D360A7
:100CF40005E00F4BDB680E4A23F48073D36097F949
:100D04000730002B06DA0A4BDB68094A43F4007308
:100D1400D36005E0064BDB68054A23F40073D36017
:100D240000BF0C37BD4680BC704700BF000C0140BB
:100D34000010014080B400AF00BF00BFBD4680BCBE
:100D44007047000080B582B000AF0346FB71144BBE
:100D5400DB68134A23F48073D360FB791846FFF7EA
:100D64004BFF104BDB680F4A23F40073D3600C4B2A
:100D7400DB680B4A23F40043D360FFF7DBFF084B27
:100D8400DB68074A43F40043D360064BDB68054A3B
:100D940043F40073D36000BF0837BD4680BD00BF75
:100DA40000080140000C014080B582B000AF03464A
:100DB400FB71144BDB68134A43F48073D360FB79F3
:100DC4001846FFF719FF104BDB680F4A23F4007332
:100DD400D3600C4BDB680B4A23F40043D360FFF76A
:100DE400A9FF084BDB68074A43F40043D360064B72
:100DF400DB68054A43F40073D36000BF0837BD467F
:100E040080BD00BF00080140000C014080B584B0E3
:100E140000AF78607B681B0AFB737B68BB73FB7B4A
:100E24001846FFF7C1FFBB7B1846FFF7BDFF00BFA5
:100E34001037BD4680BD000080B500AF214BDB6894
:100E4400204A23F48073D360142001F0F9FD1D4B74
:100E5400DB681C4A43F48073D360502001F0F0FD3A
:100E64001120FFF76FFF2620FFF76CFF0420FFF728
:100E74009BFF3620FFF766FFA820FFF795FFB12000
:100E8400FFF760FF0E20FFF78FFF1420FFF78CFFA2
:100E94003A20FFF757FF0520FFF786FF2920FFF7C9
:100EA40051FF094BDB68084A43F00203D3604FF457
:100EB400FC6000F065F84FF47A7001F0C1FD00BFEA
:100EC40080BD00BF000C01400008014080B586B021
:100ED40000AFF860B9607A603B60FA687B681344DD
:100EE400013B7B61BA683B681344013B3B612A20A8
:100EF400FFF728FFF868FFF789FF7B691846FFF7BB
:100F040085FF2B20FFF71EFFB868FFF77FFF3B69C3
:100F14001846FFF77BFF2C20FFF714FF00BF18379C
:100F2400BD4680BD80B584B000AF78608023A02228
:100F340000210020FFF7CAFF0023FB6019E0002313
:100F4400BB6010E07B685A1C7A601B781846FFF778
:100F54002BFF7B685A1C7A601B781846FFF724FF26
:100F6400BB680133BB60BB689F2BEBDDFB680133BF
:100F7400FB60FB687F2BE2DD00BF1037BD4680BD00
:100F840080B584B000AF78608023A02200210020C7
:100F9400FFF79CFF0023FB600EE00023BB6005E02D
:100FA4007868FFF733FFBB680133BB60BB689F2BD6
:100FB400F6DDFB680133FB60FB687F2BEDDD00BFD2
:100FC4001037BD4680BD000080B588B000AF07F182
:100FD400100300221A605A609A60DA60694B9B69B8
:100FE400684A43F010039361664B9B6903F0100356
:100FF400FB60FB68634B9B69624A43F02003936187
:10100400604B9B6903F02003BB60BB685D4B9B692D
:101014005C4A43F0040393615A4B9B6903F0040355
:101024007B607B68574B9B69564A43F00803936186
:10103400544B9B6903F008033B603B68012248F270
:10104400CE71514802F0D1F8002248F202714F48A3
:1010540002F0CBF8012270214C4802F0C6F80022BD
:101064001021494802F0C1F801224FF20201484818
:1010740002F0BBF800224FF44071454802F0B5F885
:1010840047F220033B6100237B610023BB6107F12E
:10109400100319463C4801F027FF48F2CE733B6128
:1010A40001237B610023BB610323FB6107F1100370
:1010B4001946354801F018FF48F202733B610123D9
:1010C4007B610023BB610223FB6107F11003194616
:1010D4002E4801F009FF70233B6101237B6100234B
:1010E400BB610323FB6107F110031946274801F094
:1010F400FBFE80233B6100237B610023BB6107F17E
:1011040010031946214801F0EFFE10233B6101232F
:101114007B610023BB610223FB6107F110031946C5
:10112400194801F0E1FE01233B6100237B610023A8
:10113400BB6107F110031946154801F0D5FE4FF2C3
:1011440002033B6101237B610023BB610323FB6139
:1011540007F1100319460E4801F0C6FE4FF4407320
:101164003B6101237B610023BB610223FB6107F127
:1011740010031946064801F0B7FE00BF2037BD46EC
:1011840080BD00BF00100240001001400008014073
:10119400000C014080B582B000AF0346FB7104200F
:1011A40001F07EFD034AFB79137000BF0837BD468A
:1011B40080BD00BFF407002080B489B000AF786020
:1011C4000023BB61194B5B687B61194B1B781A4682
:1011D4007B6802FB03F33B61144B9B68FB61134B7D
:1011E4009B68FB60FA68FB699A42F8D0FA68FB696D
:1011F4009A4206D2FA69FB68D31ABA691344BB61EE
:1012040007E07A69FB68D21AFB691344BA6913448C
:10121400BB61FB68FB61BA693B699A4200D2DEE7B5
:1012240000BF00BF2437BD4680BC704710E000E01B
:10123400F407002080B500AF01F0A0FB00F0A2F895
:10124400FFF7C2FE00F02CFE00F0C4FE00F0CEFF5B
:1012540000F0F6FF00F070FE01F0AAF800F008FFBD
:101264003B4802F0B8FD3B4802F0B5FD3A4B002282
:101274001A703A4B00221A70394B00221A70394AFC
:10128400137843F004031370374B00221A700D22B5
:101294003649374803F083F901F0CAF801F0D8F869
:1012A40001F022FB01F0FCFA324A13786FF30413C5
:1012B4001370FFF7C1FD3048FFF734FE002202210E
:1012C4002E4801F092FF012001F0BAFBFEF7EEFF79
:1012D400FFF796FA0020FFF757F8264A13786FF3C2
:1012E40082031370FFF7ECF90346002B03D0FFF7DA
:1012F40095FBFFF7D1FB1F4B1B78C3F38003DBB2D5
:10130400002B06D01B4A13786FF382031370FFF788
:1013140041FB1B4B1B78C3F3C013DBB2002BE1D0A2
:10132400174A13786FF3C71313700122022113486D
:1013340001F05BFF022001F083FB00F05BFB002265
:1013440002210E4801F051FF012001F079FBC9E7A9
:10135400B4070020E8050020DA0D0020D40D002099
:10136400DC0D0020680100208D04002040080020CE
:101374002C0600205C000020F44D0008000C014005
:101384005800002080B596B000AF07F13003282242
:101394000021184603F002FD07F11C0300221A6025
:1013A4005A609A60DA601A613B1D00221A605A6022
:1013B4009A60DA601A615A6101233B634FF4803307
:1013C4007B630023BB6301233B640223FB644FF470
:1013D40080333B654FF4E0137B6507F13003184617
:1013E40001F0FCFF0346002B01D000F09BFC0F230F
:1013F400FB6102233B6200237B624FF48063BB6288
:101404000023FB6207F11C030221184602F066FA6E
:101414000346002B01D000F085FC10237B600023E1
:10142400BB613B1D184602F0F5FB0346002B01D0BF
:1014340000F078FC00BF5837BD4680BD80B582B04F
:1014440000AF78607B681A68874B1B689A420ED19C
:10145400864A137843F080031370854B1A78854BC2
:101464001A70834B00221A707F4802F0D7FC7B6805
:101474001A68814B1B689A4240F03E827F4B1B885E
:1014840001339AB27D4B1A807D4B1B6801337C4A31
:1014940013607C4B1B6801337A4A13607A4B1B88B8
:1014A40001339AB2784B1A80784B1B7E152B35D1B9
:1014B400774B1B78C3F30013DBB2002B18D0744AAC
:1014C40013786FF304131370724B1A78724B5A71BA
:1014D400724B1A78724B1A70724B1A78724B1A70DC
:1014E400724B1A78724B1A7001F08AF901F0C4F940
:1014F400704B00221A70674B1A78674B5A71674B0E
:101504001A78674B1A70674B1A78674B1A70674BD7
:101514001A78674B1A7001F073F934E0654B1B7845
:101524000133DAB2634B1A70624B1B78502B18D913
:10153400604B51221A70564A137843F0100313700B
:10154400554B05225A71564B00221A70564B0022F5
:101554001A70574B00221A7001F052F901F08CF9FD
:1015640011E04C4B1A784C4B5A714C4B1A784C4B3B
:101574001A704C4B1A784C4B1A704C4B1A784C4BD3
:101584001A7001F03DF94C4BDB684B4A23F40043DD
:10159400D360494BDB68484A43F00803D3604FF4F7
:1015A4000051454801F00AFE0346002B12D1434B7B
:1015B4001B780133DAB2414B1A70404B1B78012B74
:1015C40037D93E4B03221A703D4A137843F0010386
:1015D40013702EE0394B00221A70394B1B78C3F379
:1015E4000003DBB2002B24D0354A13786FF30003D9
:1015F40013702B4B19221A702B4B00221A702C4B90
:1016040000221A70244B01225A71254B1A78234B5D
:101614001A70254B1A78234B1A70254B1A78234BD2
:101624001A701D4B5A791B4B1A7001F0E9F801F03E
:1016340023F94FF48041204801F0C0FD0346002BFC
:1016440042D1204B1B780133DAB21E4B1A701D4B6A
:101654001B78012B67D91B4B03221A70184A137885
:1016640043F0020313705EE0140A002058000020C7
:101674006F07002028060020B4070020540500202E
:1016840060010020840300204A000020600500203F
:101694005C000020450000200C00002046000020D3
:1016A400DA0D002047000020D40D0020480000205F
:1016B400DC0D00204400002000100140620B0020DB
:1016C4005000002009090020974B00221A70974B04
:1016D4001B78C3F34003DBB2002B24D0934A137866
:1016E4006FF341031370924B03225A71904B5A7952
:1016F400904B1A70904B00221A70904B00221A7073
:101704008F4B19221A708C4B1A788E4B1A708B4B94
:101714001A788D4B1A708A4B1A788C4B1A7001F018
:101724006FF801F0A9F88A4BDB68894A43F4004357
:10173400D360874BDB68864A23F00803D3604FF4F9
:101744000051834801F03AFD0346002B12D1814B2E
:101754001B780133DAB27F4B1A707E4B1B78012B56
:1017640037D97C4B03221A70704A137843F0040370
:1017740013702EE0774B00221A706C4B1B78C3F366
:101784008003DBB2002B24D0684A13786FF3820302
:101794001370674B02225A71654B5A79654B1A7064
:1017A400654B00221A70654B19221A70644B002293
:1017B4001A70614B1A78634B1A70604B1A78624B3B
:1017C4001A705F4B1A78614B1A7001F019F801F026
:1017D40053F84FF480415E4801F0F0FC0346002BBF
:1017E40012D15D4B1B780133DAB25B4B1A705A4B42
:1017F4001B78012B37D9584B03221A704B4A1378A4
:1018040043F0080313702EE0534B00221A70474B29
:101814001B78C3F3C003DBB2002B24D0434A1378F4
:101824006FF3C3031370424B04225A71404B5A792D
:10183400404B1A70404B19221A70404B19221A70EF
:101844003F4B19221A703C4B1A783E4B1A703B4B93
:101854001A783D4B1A703A4B1A783C4B1A7000F0C8
:10186400CFFF01F009F82021394801F0A7FC034615
:10187400002B12D1394B1B780133DAB2374B1A7073
:10188400364B1B78012B37D9344B03221A70274A65
:10189400137843F0200313702EE0304B00221A70AB
:1018A400224B1B78C3F34013DBB2002B24D01F4A16
:1018B40013786FF3451313701D4B05225A711C4B9B
:1018C4005A791C4B1A701C4B00221A701B4B0022B5
:1018D4001A701B4B00221A70174B1A78194B1A7086
:1018E400164B1A78184B1A70154B1A78174B1A7036
:1018F40000F086FF00F0C0FF7B681A68184B1B6875
:101904009A420DD1174B1B78C3F38003DBB2002B33
:1019140006D0144A13786FF38203137000F0ACFFFF
:1019240000BF0837BD4680BD0909002050000020D3
:101934000C00002045000020DA0D0020D40D00200A
:10194400DC0D002046000020470000204800002055
:1019540000100140640B0020B00700209009002013
:10196400E80500206801002080B582B000AF7860EF
:101974007B681B4A93422FD11A4B1B6800225A6280
:10198400194B1B785A1CD1B2174A11701A46174BBF
:101994001978174B9954164B1B78522B08D1114BBD
:1019A4001B686FF001021A610E4802F014FA0EE08F
:1019B4000C4B1B6800225A620A4B1B686FF0010231
:1019C4001A61084802F007FA074B00221A70012234
:1019D4000649034802F0E3FD00BF0837BD4680BD59
:1019E4002C060020140A00206F0700204008002065
:1019F400980A002080B400AF954B1B78522B40F01E
:101A04007581944B1B78013B914AD35C2A2B40F09F
:101A14006D81914A137843F0040313708F4B0022B5
:101A24001A7028E08D4B1B781A46894B9B5C522B0D
:101A340004D18A4B1A788A4B1A7016E0874B1B78AC
:101A44001A46834B9B5C472B04D1844B1A78854BF5
:101A54001A700AE0814B1B781A467D4B9B5C422B23
:101A640003D17E4B1A78804B1A707C4B1B78013360
:101A7400DAB27A4B1A70794B1B781A46754B1B787D
:101A8400013B9A42CEDB774B1A78754B1B78D31AFD
:101A9400DBB2013BDAB2754B1A70734B1A78714B97
:101AA4001B78D31ADBB2013BDAB2714B1A70694B63
:101AB4001A786D4B1B78D31ADBB2023BDAB26D4B4A
:101AC4001A706A4B1B78022B0DD0032B21D0012BEB
:101AD40046D1644B1B78013B5D4AD35C303BDAB2A0
:101AE400654B1A703CE05F4B1B78013B584AD25C53
:101AF4005C4B1B78023B5649CB5C194689000B446E
:101B04005B00DBB21344DBB2103BDAB25A4B1A70FF
:101B140026E0544B1B78013B4D4AD25C514B1B7859
:101B2400023B4B49CB5C194689000B445B00DBB29A
:101B34001344DAB24B4B1B78033B4549CB5C194643
:101B440089000B4419468800194603460B449B0040
:101B5400DBB21344DBB23033DAB2474B1A7000BF46
:101B6400434B1B78022B0DD0032B21D0012B46D1E4
:101B74003D4B1B78013B364AD35C303BDAB23F4BDA
:101B84001A703CE0384B1B78013B314AD25C364B2F
:101B94001B78023B2E49CB5C194689000B445B0041
:101BA400DBB21344DBB2103BDAB2344B1A7026E0DA
:101BB4002D4B1B78013B264AD25C2B4B1B78023BF6
:101BC4002349CB5C194689000B445B00DBB2134408
:101BD400DAB2254B1B78033B1D49CB5C19468900BF
:101BE4000B4419468800194603460B449B00DBB29C
:101BF4001344DBB23033DAB2204B1A7000BF1D4BF2
:101C04001B78022B0DD0032B3CD0012B61D1114B3F
:101C14001B78023B0E4AD35C303BDAB2184B1A7085
:101C240057E00C4B1B78023B094AD25C094B1B78EA
:101C3400033B0749CB5C194689000B445B00DBB2CC
:101C44001344DBB2103BDAB20D4B1A7041E000BF13
:101C5400980A00202806002068010020F5070020CB
:101C64005807002059070020550A0020E4050020E9
:101C7400080900203C080020DA0D0020D40D0020C3
:101C8400DC0D00201F4B1B78023B1F4AD25C1D4B0E
:101C94001B78033B1C49CB5C194689000B445B0051
:101CA400DBB21344DAB2174B1B78043B1649CB5C06
:101CB400194689000B4419468800194603460B440B
:101CC4009B00DBB21344DBB23033DAB20F4B1A7031
:101CD40000BF0F4B1A780F4B1A700F4B1A780D4B2D
:101CE4005A700A4B1A780B4B9A7007E00B4B002280
:101CF4001A700B4A13786FF38203137000BFBD464A
:101D040080BC704728060020980A0020DC0D0020C3
:101D1400DA0D002014000020D40D00206F070020ED
:101D24006801002080B400AF00BFBD4680BC70478E
:101D340080B485B000AF154B9B69144A43F001038E
:101D44009361124B9B6903F00103BB60BB680F4BAB
:101D5400DB690E4A43F08053D3610C4BDB6903F01B
:101D640080537B607B680A4B5B68FB60FB6823F0F5
:101D7400E063FB60FB6843F00073FB60044AFB68AC
:101D8400536000BF1437BD4680BC7047001002404A
:101D94000000014080B400AF00BFBD4680BC704766
:101DA40080B400AFFEE780B400AFFEE780B400AFBC
:101DB400FEE780B400AFFEE780B400AF00BFBD46CD
:101DC40080BC704780B400AF00BFBD4680BC704784
:101DD40080B400AF00BFBD4680BC704780B500AF83
:101DE40000F012FE00BF80BD80B500AF024802F0D3
:101DF4003FF800BF80BD00BF140A002080B500AFCB
:101E0400024802F035F800BF80BD00BFB4070020CF
:101E140080B500AF024802F02BF800BF80BD00BFC0
:101E2400E805002080B500AF024802F00DFC00BFB9
:101E340080BD00BF2C06002080B400AF154B1B688A
:101E4400144A43F001031360124B5A681149124BB0
:101E540013404B600F4B1B680E4A23F0847323F42A
:101E6400803313600B4B1B680A4A23F480231360EE
:101E7400084B5B68074A23F4FE035360054B4FF499
:101E84001F029A60054B4FF000629A6000BFBD4686
:101E940080BC7047001002400000FFF800ED00E035
:101EA40080B586B000AF07F1080300221A605A60BB
:101EB4009A60DA603B4600221A605A601D4B4FF06C
:101EC40080421A601B4B41F61F425A60194B002294
:101ED4009A60184BC722DA60164B00221A61154B20
:101EE40000229A61134801F04BFF0346002B01D0F6
:101EF400FFF718FF4FF48053BB6007F1080319463E
:101F04000C4802F0BDF80346002B01D0FFF70AFF8E
:101F140000233B6000237B603B461946054802F0E2
:101F24009BFA0346002B01D0FFF7FCFE00BF1837D5
:101F3400BD4680BD140A002080B586B000AF07F10D
:101F4400080300221A605A609A60DA603B46002255
:101F54001A605A601D4B1E4A1A601C4B41F61F4200
:101F64005A601A4B00229A60184BC722DA60174B4A
:101F740000221A61154B00229A61144801F000FFF7
:101F84000346002B01D0FFF7CDFE4FF48053BB6016
:101F940007F1080319460D4802F072F80346002BB6
:101FA40001D0FFF7BFFE00233B6000237B603B466C
:101FB4001946064802F050FA0346002B01D0FFF7F9
:101FC400B1FE00BF1837BD4680BD00BFB407002076
:101FD4000004004080B586B000AF07F1080300227A
:101FE4001A605A609A60DA603B4600221A605A60AE
:101FF4001D4B1E4A1A601C4B41F61F425A601A4B75
:1020040000229A60184BC722DA60174B00221A612B
:10201400154B00229A61144801F0B2FE0346002BCE
:1020240001D0FFF77FFE4FF48053BB6007F1080334
:1020340019460D4802F024F80346002B01D0FFF79F
:1020440071FE00233B6000237B603B461946064833
:1020540002F002FA0346002B01D0FFF763FE00BF33
:102064001837BD4680BD00BFE805002000080040C9
:1020740080B586B000AF07F1080300221A605A60E9
:102084009A60DA603B4600221A605A601D4B1E4A71
:102094001A601C4B41F61F425A601A4B00229A6088
:1020A400184BC722DA60174B00221A61154B002225
:1020B4009A61144801F064FE0346002B01D0FFF737
:1020C40031FE4FF48053BB6007F1080319460D48F5
:1020D40001F0D6FF0346002B01D0FFF723FE0023B7
:1020E4003B6000237B603B461946064802F0B4F986
:1020F4000346002B01D0FFF715FE00BF1837BD467D
:1021040080BD00BF70070020000C004080B586B081
:1021140000AF78607B681B68B3F1804F14D12F4BFC
:10212400DB692E4A43F00103D3612C4BDB6903F0D6
:1021340001037B617B69002202211C2000F079FDF0
:102144001C2000F092FD44E07B681B68244A934203
:1021540014D1224BDB69214A43F00203D3611F4BA4
:10216400DB6903F002033B613B69002200211D206F
:1021740000F05FFD1D2000F078FD2AE07B681B68FD
:10218400184A934214D1154BDB69144A43F00403F3
:10219400D361124BDB6903F00403FB60FB6800228C
:1021A40000211E2000F045FD1E2000F05EFD10E021
:1021B4007B681B680C4A93420BD1084BDB69074AC6
:1021C40043F00803D361054BDB6903F00803BB60EC
:1021D400BB6800BF1837BD4680BD00BF0010024079
:1021E4000004004000080040000C004080B500AF2F
:1021F400114B124A1A60104B4FF496425A600E4B20
:1022040000229A600C4B0022DA600B4B00221A6108
:10221400094B0C225A61084B00229A61064B00229A
:10222400DA61054802F06EF90346002B01D0FFF78E
:1022340079FD00BF80BD00BF580A00200044004063
:1022440080B500AF114B124A1A60104B4FF4E132C3
:102254005A600E4B00229A600C4B0022DA600B4B42
:1022640000221A61094B0C225A61084B00229A6120
:10227400064B0022DA61054802F044F90346002BBC
:1022840001D0FFF74FFD00BF80BD00BF2C0600202A
:102294000048004080B58AB000AF786007F11803A9
:1022A40000221A605A609A60DA607B681B683B4AB5
:1022B400934230D13A4BDB69394A43F40033D3615A
:1022C400374BDB6903F400337B617B69344B9B69D7
:1022D400334A43F004039361314B9B6903F00403D5
:1022E4003B613B690423BB610223FB6103237B62E3
:1022F40007F1180319462B4800F0F6FD0823BB61CB
:102304000023FB6100233B6207F1180319462548AB
:1023140000F0EAFD3EE07B681B68234A934239D112
:102324001F4BDB691E4A43F48023D3611C4BDB69DA
:1023340003F48023FB60FB68194B9B69184A43F044
:1023440008039361164B9B6903F00803BB60BB68E9
:102354004FF48063BB610223FB6103237B6207F1BB
:1023640018031946114800F0BFFD4FF40063BB6128
:102374000023FB6100233B6207F1180319460B4855
:1023840000F0B2FD00220021272000F052FC27209B
:1023940000F06BFC00BF2837BD4680BD0044004000
:1023A400001002400008014000480040000C0140B9
:1023B40080B500AF0D4B0E4A1A600C4B08225A60D0
:1023C4000A4B02229A60094B00229A61074B0022B1
:1023D400DA61064B00221A62044800F01EFF03462D
:1023E400002B01D0FFF79EFC00BF80BD680B0020CE
:1023F400005C004080B485B000AF78607B681B68E7
:10240400094A93420BD1094BDB69084A43F40003A0
:10241400D361064BDB6903F40003FB60FB6800BF78
:102424001437BD4680BC7047005C00400010024079
:1024340080B500AF054BDB68044A23F00403D36086
:102444004FF49670FEF7B8FE00BF80BD0010014047
:1024540080B500AF054BDB68044A23F00203D36068
:102464004FF49670FEF7A8FE00BF80BD0010014037
:1024740080B485B000AF0346FB710023FB73BBE05F
:1024840097F90730002B70DA604BDB685F4A43F042
:102494000203D36000BF00BF00BF00BF00BF00BF86
:1024A40000BF00BF00BF00BF00BF00BF00BF00BF30
:1024B40000BF00BF00BF00BF00BF00BF00BF00BF20
:1024C40000BF00BF00BF00BF00BF00BF00BF00BF10
:1024D40000BF00BF00BF00BF00BF00BF00BF00BF00
:1024E40000BF00BF00BF00BF00BF00BF00BF00BFF0
:1024F40000BF00BF00BF00BF444BDB68434A23F06A
:102504000203D36000BF00BF00BF00BF00BF00BF15
:1025140000BF00BF00BF00BF00BF00BF00BF00BFBF
:1025240000BF00BF00BF00BF00BF00BF00BF00BFAF
:1025340000BF00BF00BF00BF00BF00BF00BF00BF9F
:1025440000BF00BF00BF00BF00BF00BF00BF00BF8F
:1025540000BF00BF00BF00BF00BF00BF00BF00BF7F
:1025640000BF00BF00BF00BF40E0284BDB68274A24
:1025740043F00203D36000BF00BF00BF234BDB68FE
:10258400224A23F00203D36000BF00BF00BF00BF94
:1025940000BF00BF00BF00BF00BF00BF00BF00BF3F
:1025A40000BF00BF00BF00BF00BF00BF00BF00BF2F
:1025B40000BF00BF00BF00BF00BF00BF00BF00BF1F
:1025C40000BF00BF00BF00BF00BF00BF00BF00BF0F
:1025D40000BF00BF00BF00BF00BF00BF00BF00BFFF
:1025E40000BF00BF00BF00BF00BF00BFFB795B009E
:1025F400FB71FB7B0133FB73FB7B072B7FF640AF47
:1026040000BF1437BD4680BC704700BF00100140B6
:1026140080B485B000AF0346FB710023FB73BBE0BD
:1026240097F90730002B70DA604BDB685F4A43F0A0
:102634000403D36000BF00BF00BF00BF00BF00BFE2
:1026440000BF00BF00BF00BF00BF00BF00BF00BF8E
:1026540000BF00BF00BF00BF00BF00BF00BF00BF7E
:1026640000BF00BF00BF00BF00BF00BF00BF00BF6E
:1026740000BF00BF00BF00BF00BF00BF00BF00BF5E
:1026840000BF00BF00BF00BF00BF00BF00BF00BF4E
:1026940000BF00BF00BF00BF444BDB68434A23F0C8
:1026A4000403D36000BF00BF00BF00BF00BF00BF72
:1026B40000BF00BF00BF00BF00BF00BF00BF00BF1E
:1026C40000BF00BF00BF00BF00BF00BF00BF00BF0E
:1026D40000BF00BF00BF00BF00BF00BF00BF00BFFE
:1026E40000BF00BF00BF00BF00BF00BF00BF00BFEE
:1026F40000BF00BF00BF00BF00BF00BF00BF00BFDE
:1027040000BF00BF00BF00BF40E0284BDB68274A82
:1027140043F00403D36000BF00BF00BF234BDB685A
:10272400224A23F00403D36000BF00BF00BF00BFF0
:1027340000BF00BF00BF00BF00BF00BF00BF00BF9D
:1027440000BF00BF00BF00BF00BF00BF00BF00BF8D
:1027540000BF00BF00BF00BF00BF00BF00BF00BF7D
:1027640000BF00BF00BF00BF00BF00BF00BF00BF6D
:1027740000BF00BF00BF00BF00BF00BF00BF00BF5D
:1027840000BF00BF00BF00BF00BF00BFFB795B00FC
:10279400FB71FB7B0133FB73FB7B072B7FF640AFA5
:1027A40000BF1437BD4680BC704700BF0010014015
:1027B40080B500AF0E4B1A780E4B1A700D4B1B7878
:1027C4001846FFF725FF0C4B1A780A4B1A70094B71
:1027D4001B781846FFF71CFF084B1A78054B1A7034
:1027E400044B1B781846FFF713FF00BF80BD00BFE2
:1027F400D40D0020D60D0020DA0D0020DC0D0020C1
:1028040080B582B000AF0023FB7104E0FFF7D0FF76
:10281400FB790133FB71FB79022BF7D9FFF708FE33
:1028240000BF0837BD4680BD80B500AF0E4B1A7897
:102834000E4B1A700D4B1B781846FFF719FE0C4B04
:102844001A780A4B1A70094B1B781846FFF710FECA
:10285400084B1A78054B1A70044B1B781846FFF77F
:1028640007FE00BF80BD00BFD40D0020D60D0020A0
:10287400DA0D0020DC0D002080B582B000AF00230B
:10288400FB7104E0FFF7D0FFFB790133FB71FB79A7
:10289400472BF7D9FFF7DCFD00BF0837BD4680BDE5
:1028A40080B582B000AF0D4B00221A700C4B002291
:1028B4001A700C4B00221A70FFF7A2FF0123FB8051
:1028C40005E0642000F0BCF8FB88013BFB80FB883A
:1028D400002BF6D100BF0837BD4680BDDA0D0020BD
:1028E400D40D0020DC0D002080B582B000AF0D4B6C
:1028F40000221A700C4B00221A700C4B00221A7022
:10290400FFF7BAFF0123FB8005E0642000F098F88C
:10291400FB88013BFB80FB88002BF6D100BF083706
:10292400BD4680BDDA0D0020D40D0020DC0D002052
:10293400002103E00B4B5B58435004310A480B4B16
:1029440042189A42F6D30A4A02E0002342F8043BB2
:10295400084B9A42F9D3FFF76FFA02F0FBF9FEF73E
:1029640069FC70471CEE00080000002028000020CD
:1029740028000020E40D0020FEE7000080B500AF31
:10298400084B1B68074A43F010031360032000F050
:1029940045F9002000F008F8FFF7CAF900231846AB
:1029A40080BD00BF0020024080B582B000AF7860D7
:1029B400124B1A68124B1B7819464FF47A73B3FB07
:1029C400F1F3B2FBF3F3184600F05DF90346002B74
:1029D40001D001230EE07B680F2B0AD8002279680E
:1029E4004FF0FF3000F025F9064A7B68136000239E
:1029F40000E0012318460837BD4680BD1C000020B6
:102A0400240000202000002080B400AF054B1B7878
:102A14001A46054B1B681344034A136000BFBD46A6
:102A240080BC704724000020E00D002080B400AF7B
:102A3400024B1B681846BD4680BC7047E00D002061
:102A440080B584B000AF7860FFF7F0FFB8607B68B2
:102A5400FB60FB68B3F1FF3F05D0094B1B781A46B6
:102A6400FB681344FB6000BFFFF7E0FF0246BB684E
:102A7400D31AFA689A42F7D800BF1037BD4680BD12
:102A84002400002080B485B000AF78607B6803F038
:102A94000703FB600C4BDB68BB60BA684FF6FF03AF
:102AA4001340BB60FB681A02BB68134343F0BF6367
:102AB40043F40033BB60044ABB68D36000BF1437DF
:102AC400BD4680BC704700BF00ED00E080B400AF9D
:102AD400044BDB681B0A03F007031846BD4680BCA1
:102AE400704700BF00ED00E080B483B000AF034640
:102AF400FB7197F90730002B0BDBFB7903F01F0206
:102B0400064997F907305B09012000FA02F241F8FF
:102B1400232000BF0C37BD4680BC704700E100E0B5
:102B240080B483B000AF03463960FB7197F9073076
:102B3400002B0ADB3B68DAB20C4997F90730120123
:102B4400D2B20B4483F800230AE03B68DAB20849A6
:102B5400FB7903F00F03043B1201D2B20B441A7643
:102B640000BF0C37BD4680BC704700BF00E100E0E9
:102B740000ED00E080B489B000AFF860B9607A601D
:102B8400FB6803F00703FB61FB69C3F10703042B34
:102B940028BF0423BB61FB690433062B02D9FB69FC
:102BA400033B00E000237B614FF0FF32BB6902FA74
:102BB40003F3DA43BB681A407B699A404FF0FF3154
:102BC4007B6901FA03F3D9437B680B40134318462E
:102BD4002437BD4680BC704780B582B000AF7860B2
:102BE4007B68013BB3F1807F01D301230FE00A4AE4
:102BF4007B68013B53600F214FF0FF30FFF790FFDC
:102C0400054B00229A60044B07221A6000231846E1
:102C14000837BD4680BD00BF10E000E080B582B03B
:102C240000AF78607868FFF72DFF00BF0837BD4616
:102C340080BD80B586B000AF0346B9607A60FB738F
:102C440000237B61FFF742FF78617A68B96878698D
:102C5400FFF790FF024697F90F3011461846FFF729
:102C64005FFF00BF1837BD4680BD80B582B000AF9E
:102C74000346FB7197F907301846FFF735FF00BF8D
:102C84000837BD4680BD80B582B000AF78607868F3
:102C9400FFF7A2FF034618460837BD4680BD000073
:102CA40080B483B000AF78607B68042B06D1094BF5
:102CB4001B68084A43F00403136005E0054B1B68D6
:102CC400044A23F00403136000BF0C37BD4680BCE4
:102CD400704700BF10E000E080B584B000AF7860BA
:102CE4000023FB737B6893F82130022B05D07B68AB
:102CF40004229A630123FB73D6E07B681B681A687D
:102D04007B681B6822F00E021A607B681B681A68D5
:102D14007B681B6822F001021A607B681B681A46F4
:102D2400644B9A4258D97B681B68634A93424FD0DC
:102D34007B681B68614A934248D07B681B68604A81
:102D4400934240D07B681B685E4A934238D07B68CC
:102D54001B685D4A934230D07B681B685B4A934290
:102D640028D07B681B68534A934220D07B681B6839
:102D7400574A934219D07B681B68564A934212D033
:102D84007B681B68544A93420AD07B681B68534A89
:102D9400934202D14FF480531BE04FF4803318E088
:102DA4004FF4807315E0102313E0012311E04FF07A
:102DB40080730EE04FF480130BE04FF4803308E08F
:102DC4004FF4805305E04FF4807302E0102300E0D9
:102DD4000123434A536057E07B681B68364A934299
:102DE4004FD07B681B68354A934248D07B681B6888
:102DF400334A934240D07B681B68324A934238D0AE
:102E04007B681B68304A934230D07B681B682F4A2A
:102E1400934228D07B681B68264A934220D07B6863
:102E24001B682B4A934219D07B681B68294A93423A
:102E340012D07B681B68284A93420AD07B681B68BF
:102E4400264A934202D14FF480531BE04FF480335F
:102E540018E04FF4807315E0102313E0012311E010
:102E64004FF080730EE04FF480130BE04FF4803387
:102E740008E04FF4805305E04FF4807302E0102320
:102E840000E00123174A53607B68012283F8212064
:102E94007B68002283F820207B685B6B002B03D0C7
:102EA4007B685B6B78689847FB7B18461037BD4698
:102EB40080BD00BF80000240080002401C000240A8
:102EC4003000024044000240580002406C000240BE
:102ED400080402401C04024030040240440402403E
:102EE400000402400000024080B48BB000AF786060
:102EF400396000237B6200233B6233E101227B6A59
:102F040002FA03F3FB613B681B68FA691340BB6177
:102F1400BA69FB699A4240F022813B685B68122BD4
:102F240034D0122B0DD8022B2BD0022B04D8002B1B
:102F340031D0012B1CD048E0032B43D0112B1BD0E4
:102F440043E08F4A934226D08D4A934206D88D4A55
:102F5400934220D08C4A93421DD036E08B4A934250
:102F640019D08B4A934216D08A4A934213D02CE04C
:102F74003B68DB683B6228E03B68DB6804333B6208
:102F840023E03B68DB6808333B621EE03B68DB6898
:102F94000C333B6219E03B689B68002B02D104238D
:102FA4003B6212E03B689B68012B05D108233B621E
:102FB4007B68FA691A6108E008233B627B68FA6956
:102FC4005A6102E000233B6200BFBB69FF2B01D8BA
:102FD4007B6801E07B6804337B61BB69FF2B02D80B
:102FE4007B6A9B0002E07B6A083B9B003B617B6938
:102FF4001A680F213B6901FA03F3DB431A40396A6B
:103004003B6901FA03F31A437B691A603B685B6806
:1030140003F08053002B00F0A2805F4B9B695E4A53
:1030240043F0010393615C4B9B6903F00103BB60B4
:10303400BB685A4A7B6A9B08023352F82330FB6010
:103044007B6A03F003039B000F2202FA03F3DB43C2
:10305400FA681340FB607B68514A93421FD07B6837
:10306400504A934219D07B684F4A934213D07B68ED
:103074004E4A93420DD07B684D4A934207D07B68F9
:103084004C4A934201D105230AE0062308E00423B5
:1030940006E0032304E0022302E0012300E000230E
:1030A4007A6A02F0030292009340FA681343FB60C9
:1030B4003A497B6A9B080233FA6841F823203B684B
:1030C4005B6803F48033002B06D03B4B1A683A4903
:1030D400BB6913430B6006E0374B1A68BB69DB43DB
:1030E400354913400B603B685B6803F40033002BE5
:1030F40006D0314B5A683049BB6913434B6006E034
:103104002D4B5A68BB69DB432B4913404B603B682A
:103114005B6803F48013002B06D0274B9A6826497A
:10312400BB6913438B6006E0234B9A68BB69DB439E
:10313400214913408B603B685B6803F40013002B48
:1031440006D01D4BDA681C49BB691343CB6006E00B
:10315400194BDA68BB69DB4317491340CB607B6AC0
:1031640001337B623B681A687B6A22FA03F3002B03
:103174007FF4C4AE00BF2C37BD4680BC704700BF8F
:103184000000211000001110000012100000311086
:103194000000321000002210001002400000014024
:1031A40000080140000C01400010014000140140DF
:1031B40000180140001C01400004014080B485B0A7
:1031C40000AF78600B467B807B689A687B881340ED
:1031D400002B02D00123FB7301E00023FB73FB7B74
:1031E40018461437BD4680BC704780B483B000AF26
:1031F40078600B467B8013467B707B78002B03D072
:103204007A887B681A6103E07B881A047B681A61F8
:1032140000BF0C37BD4680BC7047F0B58BB006AF1D
:1032240078607B68002B01D10123D3E07B6893F89D
:103234002932DBB2002B06D17B68002283F82822D6
:103244007868FFF7D7F87B68032283F829227B6824
:103254001B68184601F027FD7B681B683B607E688D
:103264006D4606F110040FCC0FC523682B60331D87
:103274000ECB386801F0F0FC0346002B05D07B68C8
:10328400022283F829220123A4E07B681B68002121
:10329400184601F024FD0023FB7335E0FB7B7A68BC
:1032A4005B011344293301221A70FB7B7A685B01AA
:1032B40013442833FA7B1A70FB7BFA7B91B27A6849
:1032C4005B01134436330A461A80FB7B7A685B0140
:1032D40013442B3300221A70FB7B7A685B0113447E
:1032E400383300221A60FB7B7A685B0113443C3359
:1032F40000221A60FB7B7A6802335B0113440022CC
:103304001A60FB7B0133FB73FA7B7B685B689A4230
:10331400C4D30023FB7331E0FB7B7A685B01134465
:1033240003F2291300221A70FB7B7A685B011344B1
:1033340003F59473FA7B1A70FB7B7A685B01134480
:1033440003F22B1300221A70FB7B7A685B0113448F
:1033540003F59C7300221A60FB7B7A685B011344BB
:1033640003F59E7300221A60FB7B7A680A335B01C3
:10337400134400221A60FB7B0133FB73FA7B7B68E6
:103384005B689A42C8D37B681B683B607E686D4665
:1033940006F110040FCC0FC523682B60331D0ECB30
:1033A400386801F0A8FC0346002B05D07B68022294
:1033B40083F8292201230DE07B68002283F824206E
:1033C4007B68012283F829227B681B68184601F078
:1033D400B6FC002318461437BD46F0BD80B586B050
:1033E40000AF78607B68002B01D101236CE27B681D
:1033F4001B6803F00103002B00F08780924B5B688D
:1034040003F00C03042B0CD08F4B5B6803F00C030C
:10341400082B12D18C4B5B6803F48033B3F5803FE7
:103424000BD1894B1B6803F40033002B6CD07B68F1
:103434005B68002B68D1012346E27B685B68B3F5C7
:10344400803F06D1804B1B687F4A43F4803313606E
:103454002EE07B685B68002B0CD17B4B1B687A4A9F
:1034640023F480331360784B1B68774A23F480235A
:1034740013601DE07B685B68B3F5A02F0CD1724B21
:103484001B68714A43F4802313606F4B1B686E4AB8
:1034940043F4803313600BE06B4B1B686A4A23F4DC
:1034A40080331360684B1B68674A23F480231360DE
:1034B4007B685B68002B13D0FFF7B8FA386108E02B
:1034C400FFF7B4FA02463B69D31A642B01D90323EC
:1034D400FAE15D4B1B6803F40033002BF0D014E0D9
:1034E400FFF7A4FA386108E0FFF7A0FA02463B6947
:1034F400D31A642B01D90323E6E1534B1B6803F46D
:103504000033002BF0D100E000BF7B681B6803F0A0
:103514000203002B63D04C4B5B6803F00C03002BBD
:103524000BD0494B5B6803F00C03082B1CD1464BB2
:103534005B6803F48033002B16D1434B1B6803F004
:103544000203002B05D07B681B69012B01D00123EA
:10355400BAE13D4B1B6823F0F8027B685B69DB0032
:10356400394913430B603AE07B681B69002B20D078
:10357400364B01221A60FFF759FA386108E0FFF769
:1035840055FA02463B69D31A022B01D903239BE166
:103594002D4B1B6803F00203002BF0D02A4B1B6851
:1035A40023F0F8027B685B69DB00274913430B6057
:1035B40015E0264B00221A60FFF738FA386108E05C
:1035C400FFF734FA02463B69D31A022B01D90323CD
:1035D4007AE11D4B1B6803F00203002BF0D17B68DA
:1035E4001B6803F00803002B3AD07B689B69002B0F
:1035F40019D0174B01221A60FFF718FA386108E056
:10360400FFF714FA02463B69D31A022B01D90323AC
:103614005AE10D4B5B6A03F00203002BF0D001204A
:1036240000F0DAFA1CE00A4B00221A60FFF7FEF9F8
:1036340038610FE0FFF7FAF902463B69D31A022B0F
:1036440008D9032340E100BF0010024000004242B9
:10365400800442429E4B5B6A03F00203002BE9D1D3
:103664007B681B6803F00403002B00F0A680002392
:10367400FB75974BDB6903F08053002B0DD1944B02
:10368400DB69934A43F08053D361914BDB6903F0C8
:103694008053BB60BB680123FB758E4B1B6803F42E
:1036A4008073002B18D18B4B1B688A4A43F48073B8
:1036B4001360FFF7BBF9386108E0FFF7B7F902467A
:1036C4003B69D31A642B01D90323FDE0814B1B68AA
:1036D40003F48073002BF0D07B68DB68012B06D1E8
:1036E4007B4B1B6A7A4A43F0010313622DE07B682B
:1036F400DB68002B0CD1764B1B6A754A23F001035F
:103704001362734B1B6A724A23F0040313621CE0B6
:103714007B68DB68052B0CD16D4B1B6A6C4A43F04C
:10372400040313626A4B1B6A694A43F00103136280
:103734000BE0674B1B6A664A23F001031362644B78
:103744001B6A634A23F0040313627B68DB68002B63
:1037540015D0FFF76BF938610AE0FFF767F9024605
:103764003B69D31A41F28832934201D90323ABE077
:10377400574B1B6A03F00203002BEED014E0FFF753
:1037840055F938610AE0FFF751F902463B69D31A4B
:1037940041F28832934201D9032395E04C4B1B6AD2
:1037A40003F00203002BEED1FB7D012B05D1484B26
:1037B400DB69474A23F08053D3617B68DB69002BC4
:1037C40000F08180424B5B6803F00C03082B61D04E
:1037D4007B68DB69022B46D13F4B00221A60FFF75E
:1037E40025F9386108E0FFF721F902463B69D31A4D
:1037F400022B01D9032367E0354B1B6803F00073E8
:10380400002BF0D17B681B6AB3F5803F08D1304BA5
:103814005B6823F400327B689B682D4913434B603B
:103824002B4B5B6823F474127B68196A7B685B6AB0
:103834000B43274913434B60274B01221A60FFF7C0
:10384400F5F8386108E0FFF7F1F802463B69D31A4E
:10385400022B01D9032337E01D4B1B6803F00073CF
:10386400002BF0D02FE01C4B00221A60FFF7DEF88B
:10387400386108E0FFF7DAF802463B69D31A022BF5
:1038840001D9032320E0124B1B6803F00073002BC3
:10389400F0D118E07B68DB69012B01D1012313E02F
:1038A4000B4B5B68FB60FB6803F480327B681B6A2C
:1038B4009A4206D1FB6803F470127B685B6A9A42F1
:1038C40001D0012300E0002318461837BD4680BD0F
:1038D40000100240007000406000424280B584B095
:1038E40000AF786039607B68002B01D10123D0E000
:1038F4006A4B1B6803F007033A689A4210D9674B76
:103904001B6823F0070265493B6813430B60634B54
:103914001B6803F007033A689A4201D00123B8E018
:103924007B681B6803F00203002B20D07B681B68B4
:1039340003F00403002B05D0594B5B68584A43F449
:10394400E06353607B681B6803F00803002B05D019
:10395400534B5B68524A43F460535360504B5B686B
:1039640023F0F0027B689B684D4913434B607B68EE
:103974001B6803F00103002B40D07B685B68012BBC
:1039840007D1474B1B6803F40033002B15D10123E7
:103994007FE07B685B68022B07D1414B1B6803F017
:1039A4000073002B09D1012373E03D4B1B6803F026
:1039B4000203002B01D101236BE0394B5B6823F038
:1039C40003027B685B68364913434B60FFF72EF8AC
:1039D400F8600AE0FFF72AF80246FB68D31A41F2BE
:1039E4008832934201D9032353E02D4B5B6803F0E3
:1039F4000C027B685B689B009A42EBD1274B1B68E7
:103A040003F007033A689A4210D2244B1B6823F050
:103A1400070222493B6813430B60204B1B6803F0E9
:103A240007033A689A4201D0012332E07B681B689D
:103A340003F00403002B08D0194B5B6823F4E06205
:103A44007B68DB68164913434B607B681B6803F093
:103A54000803002B09D0124B5B6823F460527B6887
:103A64001B69DB000E4913434B6000F021F801464B
:103A74000B4B5B681B0903F00F030A4AD35C21FA62
:103A840003F3094A1360094B1B681846FEF78CFFC1
:103A9400002318461037BD4680BD00BF00200240F9
:103AA40000100240FCED00081C0000202000002053
:103AB40090B48AB000AF2A4B3C1D0FCB84E80F00B2
:103AC400284B1B883B800023FB610023BB61002340
:103AD4007B6200237B6100233B62234B5B68FB61B9
:103AE400FB6903F00C03042B02D0082B03D02DE058
:103AF4001E4B3B622DE0FB699B0C03F00F0307F1A7
:103B04002802134413F8243C7B61FB6903F48033DB
:103B1400002B13D0144B5B685B0C03F0010307F11B
:103B24002802134413F8283CBB617B690F4A02FB4B
:103B340003F2BB69B2FBF3F37B6204E07B690C4ADA
:103B440002FB03F37B627B6A3B6202E0074B3B624E
:103B540000BF3B6A18462837BD4690BC704700BF7B
:103B6400C84D0008D84D00080010024000127A0029
:103B740000093D0080B400AF024B1B681846BD46E7
:103B840080BC70471C00002080B500AFFFF7F2FF37
:103B94000146054B5B681B0A03F00703034AD35C29
:103BA40021FA03F3184680BD001002400CEE000811
:103BB40080B500AFFFF7DEFF0146054B5B68DB0A0B
:103BC40003F00703034AD35C21FA03F3184680BDCC
:103BD400001002400CEE000880B485B000AF78609D
:103BE4000A4B1B680A4AA2FB03235B0A7A6802FB9E
:103BF40003F3FB6000BFFB685A1EFA60002BF9D187
:103C040000BF1437BD4680BC704700BF1C000020B5
:103C1400D34D621080B586B000AF786000233B615D
:103C24000023FB607B681B6803F00103002B7DD03D
:103C34000023FB754F4BDB6903F08053002B0DD140
:103C44004C4BDB694B4A43F08053D361494BDB69EE
:103C540003F08053BB60BB680123FB75464B1B68B4
:103C640003F48073002B18D1434B1B68424A43F47E
:103C740080731360FEF7DAFE386108E0FEF7D6FEC3
:103C840002463B69D31A642B01D903236DE03A4BF6
:103C94001B6803F48073002BF0D0364B1B6A03F4CB
:103CA4004073FB60FB68002B2ED07B685B6803F4D9
:103CB4004073FA689A4227D02E4B1B6A23F4407350
:103CC400FB602E4B01221A602C4B00221A60294AF9
:103CD400FB681362FB6803F00103002B14D0FEF7AA
:103CE400A5FE38610AE0FEF7A1FE02463B69D31A3D
:103CF40041F28832934201D9032336E01D4B1B6AFB
:103D040003F00203002BEED01A4B1B6A23F440721B
:103D14007B685B68174913430B62FB7D012B05D15C
:103D2400144BDB69134A23F08053D3617B681B680F
:103D340003F00203002B08D00E4B5B6823F44042CF
:103D44007B689B680B4913434B607B681B6803F0DB
:103D54001003002B08D0074B5B6823F480027B68B8
:103D64005B69044913434B60002318461837BD466A
:103D740080BD00BF00100240007000404004424279
:103D840080B582B000AF78607B68002B01D101233D
:103D94001DE07B6893F83D30DBB2002B06D17B68D5
:103DA400002283F83C207868FEF7B0F97B68022291
:103DB40083F83D207B681A687B68043319461046F3
:103DC40000F03AFA7B68012283F83D20002318466C
:103DD4000837BD4680BD80B485B000AF78607B688D
:103DE4001B68DA687B681B6842F00102DA607B6852
:103DF4001B689B6803F00703FB60FB68062B07D076
:103E04007B681B681A687B681B6842F001021A60B1
:103E1400002318461437BD4680BC704780B483B075
:103E240000AF78607B681B68DA687B681B6822F0E7
:103E34000102DA607B681B681A6A41F211131340AD
:103E4400002B0FD17B681B681A6A40F2444313406D
:103E5400002B07D17B681B681A687B681B6822F0FB
:103E640001021A60002318460C37BD4680BC704717
:103E740080B582B000AF78607B681B681B6903F073
:103E84000203022B22D17B681B68DB6803F0020368
:103E9400022B1BD17B681B686FF002021A617B68DE
:103EA40001221A777B681B689B6903F00303002BCC
:103EB40003D0786800F0A4F905E0786800F097F979
:103EC400786800F0A6F97B6800221A777B681B6883
:103ED4001B6903F00403042B22D17B681B68DB6895
:103EE40003F00403042B1BD17B681B686FF00402EE
:103EF4001A617B6802221A777B681B689B6903F44A
:103F04004073002B03D0786800F07AF905E07868F4
:103F140000F06DF9786800F07CF97B6800221A776C
:103F24007B681B681B6903F00803082B22D17B689C
:103F34001B68DB6803F00803082B1BD17B681B6834
:103F44006FF008021A617B6804221A777B681B6889
:103F5400DB6903F00303002B03D0786800F050F909
:103F640005E0786800F043F9786800F052F97B685E
:103F740000221A777B681B681B6903F01003102B5F
:103F840022D17B681B68DB6803F01003102B1BD164
:103F94007B681B686FF010021A617B6808221A772D
:103FA4007B681B68DB6903F44073002B03D07868DB
:103FB40000F026F905E0786800F019F9786800F057
:103FC40028F97B6800221A777B681B681B6903F059
:103FD4000103012B0ED17B681B68DB6803F001032E
:103FE400012B07D17B681B686FF001021A617868A6
:103FF400FDF724FA7B681B681B6903F08003802BA0
:104004000ED17B681B68DB6803F08003802B07D12B
:104014007B681B686FF080021A61786800F069FAA7
:104024007B681B681B6903F04003402B0ED17B683F
:104034001B68DB6803F04003402B07D17B681B68D7
:104044006FF040021A61786800F0ECF87B681B6836
:104054001B6903F02003202B0ED17B681B68DB68EF
:1040640003F02003202B07D17B681B686FF020022C
:104074001A61786800F034FA00BF0837BD4680BD85
:1040840080B584B000AF786039607B6893F83C30C9
:10409400012B01D10223A6E07B68012283F83C2096
:1040A4007B68022283F83D207B681B689B68FB6069
:1040B400FB6823F07703FB60FB6823F47F43FB601A
:1040C4007B681B68FA689A603B681B68402B67D062
:1040D400402B0BD8102B73D0102B02D8002B6FD091
:1040E40078E0202B6CD0302B6AD073E0702B0DD08D
:1040F400702B04D8502B33D0602B41D06AE0B3F539
:10410400805F66D0B3F5005F17D063E07B68186802
:104114003B6899683B685A683B68DB6800F07DF946
:104124007B681B689B68FB60FB6843F07703FB605C
:104134007B681B68FA689A604CE07B6818683B6887
:1041440099683B685A683B68DB6800F066F97B68ED
:104154001B689A687B681B6842F480429A6039E065
:104164007B6818683B6859683B68DB681A4600F04E
:10417400DDF87B681B685021184600F034F929E00B
:104184007B6818683B6859683B68DB681A4600F02E
:10419400FBF87B681B686021184600F024F919E0DD
:1041A4007B6818683B6859683B68DB681A4600F00E
:1041B400BDF87B681B684021184600F014F909E03B
:1041C4007B681A683B681B681946104600F00BF9B7
:1041D40000E000BF7B68012283F83D207B68002259
:1041E40083F83C20002318461037BD4680BD80B4B8
:1041F40083B000AF786000BF0C37BD4680BC704709
:1042040080B483B000AF786000BF0C37BD4680BC7B
:10421400704780B483B000AF786000BF0C37BD46F0
:1042240080BC704780B483B000AF786000BF0C37A7
:10423400BD4680BC7047000080B485B000AF786094
:1042440039607B681B68FB607B68334A934213D0F8
:104254007B68324A93420FD07B68B3F1804F0BD016
:104264007B682F4A934207D07B682E4A934203D03F
:104274007B682D4A934208D1FB6823F07003FB60EE
:104284003B685B68FA681343FB607B68224A93428D
:1042940013D07B68214A93420FD07B68B3F1804FDF
:1042A4000BD07B681E4A934207D07B681D4A934219
:1042B40003D07B681C4A934208D1FB6823F4407303
:1042C400FB603B68DB68FA681343FB60FB6823F020
:1042D40080023B685B691343FB607B68FA681A6081
:1042E4003B689A687B68DA623B681A687B689A6202
:1042F4007B68094A934203D07B68084A934203D1FE
:104304003B681A697B681A637B6801225A6100BFA3
:104314001437BD4680BC7047002C01400034014076
:104324000004004000080040000C004080B487B046
:1043340000AFF860B9607A60FB681B6A7B61FB6858
:104344001B6A23F00102FB681A62FB689B693B61EC
:104354003B6923F0F0033B617B681B013A6913431B
:104364003B617B6923F00A037B617A69BB68134371
:104374007B61FB683A699A61FB687A691A6200BFDB
:104384001C37BD4680BC704780B487B000AFF8606E
:10439400B9607A60FB681B6A23F01002FB681A623A
:1043A400FB689B697B61FB681B6A3B617B6923F447
:1043B40070437B617B681B037A6913437B613B69B0
:1043C40023F0A0033B61BB681B013A6913433B61C3
:1043D400FB687A699A61FB683A691A6200BF1C3704
:1043E400BD4680BC704780B485B000AF786039604A
:1043F4007B689B68FB60FB6823F07003FB603A6892
:10440400FB68134343F00703FB607B68FA689A6018
:1044140000BF1437BD4680BC704780B487B000AF7E
:10442400F860B9607A603B60FB689B687B617B697C
:1044340023F47F437B613B681A027B681A43BB68A1
:1044440013437A6913437B61FB687A699A6000BFFE
:104454001C37BD4680BC704780B485B000AF78601F
:1044640039607B6893F83C30012B01D1022332E0A0
:104474007B68012283F83C207B68022283F83D207C
:104484007B681B685B68FB607B681B689B68BB6020
:10449400FB6823F07003FB603B681B68FA681343F6
:1044A400FB60BB6823F08003BB603B685B68BA6851
:1044B4001343BB607B681B68FA685A607B681B689F
:1044C400BA689A607B68012283F83D207B680022E9
:1044D40083F83C20002318461437BD4680BC70473F
:1044E40080B483B000AF786000BF0C37BD4680BC99
:1044F400704780B483B000AF786000BF0C37BD460E
:1045040080BC704780B582B000AF78607B68002BB8
:1045140001D101233FE07B6893F83930DBB2002BF3
:1045240006D17B68002283F838207868FDF7B2FE54
:104534007B68242283F839207B681B68DA687B68EF
:104544001B6822F40052DA60786800F0ABFA7B68EA
:104554001B681A697B681B6822F490421A617B68A5
:104564001B685A697B681B6822F02A025A617B68BF
:104574001B68DA687B681B6842F40052DA607B6867
:104584000022DA637B68202283F839207B682022AA
:1045940083F83A20002318460837BD4680BD80B40E
:1045A40085B000AFF860B9601346FB80FB6893F8F0
:1045B4003A30DBB2202B40D1BB68002B02D0FB8801
:1045C400002B01D1012339E0FB6893F83830012B2B
:1045D40001D1022332E0FB68012283F83820FB6812
:1045E400BA689A62FB68FA889A85FB68FA88DA8561
:1045F400FB680022DA63FB68222283F83A20FB6816
:10460400002283F83820FB681B68DA68FB681B68A3
:1046140042F48072DA60FB681B685A69FB681B68A5
:1046240042F001025A61FB681B68DA68FB681B6888
:1046340042F02002DA60002300E002231846143717
:10464400BD4680BC7047000080B588B000AF78607C
:104654007B681B681B68FB617B681B68DB68BB614C
:104664007B681B685B697B6100233B610023FB6003
:10467400FB6903F00F033B613B69002B0DD1FB6920
:1046840003F02003002B08D0BB6903F02003002BA8
:1046940003D0786800F084F9CCE03B69002B00F08B
:1046A400AB807B6903F00103002B05D1BB6903F4E4
:1046B4009073002B00F0A080FB6903F00103002B32
:1046C4000AD0BB6903F48073002B05D07B68DB6BD5
:1046D40043F001027B68DA63FB6903F00403002BF7
:1046E4000AD07B6903F00103002B05D07B68DB6BE8
:1046F40043F002027B68DA63FB6903F00203002BD8
:104704000AD07B6903F00103002B05D07B68DB6BC7
:1047140043F004027B68DA63FB6903F00803002BAF
:104724000AD07B6903F00103002B05D07B68DB6BA7
:1047340043F008027B68DA637B68DB6B002B78D07C
:10474400FB6903F02003002B07D0BB6903F02003AF
:10475400002B02D0786800F023F97B681B685B6942
:1047640003F04003002B14BF01230023DBB2FB60E2
:104774007B68DB6B03F00803002B02D1FB68002B82
:1047840031D0786800F06EF87B681B685B6903F0D1
:104794004003002B23D07B681B685A697B681B6825
:1047A40022F040025A617B685B6B002B13D07B685C
:1047B4005B6B224A5A637B685B6B1846FEF78CFA84
:1047C4000346002B16D07B685B6B5B6B7A68526B7D
:1047D400104698470EE0786800F03BF80AE07868E5
:1047E40000F037F806E0786800F033F87B680022C0
:1047F400DA631EE000BF1CE0FB6903F08003002BBA
:1048040008D0BB6903F08003002B03D0786800F064
:104814005AF80FE0FB6903F04003002B0AD0BB6990
:1048240003F04003002B05D0786800F0A1F800BF26
:1048340000E000BF2037BD4680BD00BFA34800088C
:1048440080B483B000AF786000BF0C37BD4680BC35
:10485400704780B483B000AF786000BF0C37BD46AA
:1048640080BC704780B483B000AF78607B681B68FD
:10487400DA687B681B6822F49072DA607B681B68D4
:104884005A697B681B6822F001025A617B68202206
:1048940083F83A2000BF0C37BD4680BC704780B512
:1048A40084B000AF78607B685B6AFB60FB680022C1
:1048B400DA85FB680022DA84F868FFF7CAFF00BFD4
:1048C4001037BD4680BD80B485B000AF78607B688A
:1048D40093F83930DBB2212B44D17B689B68B3F564
:1048E400805F1AD17B681B6AFB60FB681B881A46D1
:1048F4007B681B68C2F308025A607B681B69002B43
:1049040005D17B681B6A9A1C7B681A620EE07B687F
:104914001B6A5A1C7B681A6208E07B681B6A591C74
:104924007A6811621A787B681B685A607B68DB8C32
:104934009BB2013B9BB27A681946D184002B0FD1FC
:104944007B681B68DA687B681B6822F08002DA6087
:104954007B681B68DA687B681B6842F04002DA6097
:10496400002300E0022318461437BD4680BC70477C
:1049740080B582B000AF78607B681B68DA687B68BA
:104984001B6822F04002DA607B68202283F8392019
:104994007868FFF755FF002318460837BD4680BDE9
:1049A40080B584B000AF78607B6893F83A30DBB2AE
:1049B400222B71D17B689B68B3F5805F23D17B6820
:1049C4009B6AFB607B681B69002B0ED17B681B68AC
:1049D4005B689BB2C3F308039AB2FB681A807B68D6
:1049E4009B6A9A1C7B689A6229E07B681B685B68F7
:1049F4009BB2DBB29AB2FB681A807B689B6A5A1C32
:104A04007B689A621BE07B681B69002B0AD17B6878
:104A14001B6858687B689B6A591C7A689162C2B2A9
:104A24001A700CE07B681B685B68DAB27B689B6A6F
:104A3400581C7968886202F07F02D2B21A707B68CF
:104A4400DB8D9BB2013B9BB27A681946D185002B62
:104A540020D17B681B68DA687B681B6822F020021F
:104A6400DA607B681B68DA687B681B6822F48072F2
:104A7400DA607B681B685A697B681B6822F0010254
:104A84005A617B68202283F83A207868FCF76CFF2F
:104A9400002302E0002300E0022318461037BD463D
:104AA40080BD000080B584B000AF78607B681B686F
:104AB4001B6923F440517B68DA687B681B680A43EE
:104AC4001A617B689A687B681B691A437B685B6917
:104AD4001343FB607B681B68DB6823F4B05323F04B
:104AE4000C037A681268F9680B43D3607B681B680F
:104AF4005B6923F440717B689A697B681B680A438D
:104B04005A617B681B68524A93424ED1FFF750F8B2
:104B1400B860BA6813469B0013449A001A447B6831
:104B24005B689B00B2FBF3F34A4AA2FB03235B09D5
:104B34001901BA6813469B0013449A001A447B680F
:104B44005B689B00B2FBF3F2424BA3FB02035B09DD
:104B5400642000FB03F3D31A1B0132333D4AA2FB4A
:104B640003235B0903F0F0031944BA6813469B005E
:104B740013449A001A447B685B689B00B2FBF3F20F
:104B8400344BA3FB02035B09642000FB03F3D31A39
:104B94001B0132332F4AA2FB03235B0903F00F02EC
:104BA4007B681B680A449A604DE0FEF7EDFFB8602D
:104BB400BA6813469B0013449A001A447B685B68E6
:104BC4009B00B2FBF3F3234AA2FB03235B09190105
:104BD400BA6813469B0013449A001A447B685B68C6
:104BE4009B00B2FBF3F21B4BA3FB02035B096420A3
:104BF40000FB03F3D31A1B013233164AA2FB03232F
:104C04005B0903F0F0031944BA6813469B0013448C
:104C14009A001A447B685B689B00B2FBF3F20D4B6D
:104C2400A3FB02035B09642000FB03F3D31A1B01FB
:104C34003233084AA2FB03235B0903F00F027B68AB
:104C44001B680A449A6000BF1037BD4680BD00BF90
:104C5400003801401F85EB5184B080B483B000AFAD
:104C6400786007F1140080E80E00002318460C3722
:104C7400BD4680BC04B0704780B485B000AF786096
:104C84004FF43F43FB817B68B3F840309AB2FB8911
:104C940013439AB27B68A3F84020002318461437C4
:104CA400BD4680BC704780B485B000AF78604FF4D7
:104CB4003F43FB817B68B3F840309BB21AB2B7F92B
:104CC4000E30DB431BB213401BB29AB27B68A3F8CD
:104CD4004020002318461437BD4680BC704780B47A
:104CE40083B000AF78600B46FB70002318460C3786
:104CF400BD4680BC704784B080B582B000AF786098
:104D040007F1140080E80E007B680122A3F840201C
:104D14007B680022A3F840207B680022A3F844208B
:104D24007B680022A3F850207868FFF7A5FF0023D2
:104D340018460837BD46BDE8804004B0704780B4CB
:104D440083B000AF7860002318460C37BD4680BCA2
:104D54007047000070B500250C4E0D4CA41BA41028
:104D6400A54209D100F022F800250A4E0A4CA41BE2
:104D7400A410A54205D170BD56F8253098470135D9
:104D8400EEE756F8253098470135F2E714EE0008AF
:104D940014EE000814EE000818EE0008034602445E
:104DA400934200D1704703F8011BF9E7F8B500BF3F
:104DB400F8BC08BC9E467047F8B500BFF8BC08BCF8
:044DC4009E46704750
:104DC80002030405060708090A0B0C0D0E0F101044
:104DD800010200000001DC02CCCC1234567CCCCCA1
:104DE800CCCCCCCC1234567CCCCCCCCC101000A083
:104DF8000080011BFFFFFFFFFFFFFFFFFFFFFFFF1B
:104E0800FFFFFFFFFFFFFFFFFFFFFFFFFFFFFFFFAA
:104E1800FFFFFFFFFFFFFFFFFFFFFFFFFFFFFFFF9A
:104E2800FFFFFFFFFFFFFFFFFFFFFFFFFFFFFFFF8A
:104E3800FFFFFFFFFFFFFFFFFFFFFFFFFFFFFFFF7A
:1059A800FFFFE77DD73BC6B9AE77A6369DF69DF6D5
:1059B800A636B6B8C6FAD73BEFBDFFFFFFFFFFFF1D
:1059C800FFFFFFFFFFFFFFFFFFFFFFFFFFFFFFFFDF
:1059D800FFFFD73BEFBEFFFFFFFFFFFFFFFFFFFF0C
:1059E800FFFFFFFFFFFFFFFFFFFFFFFFFFFFFFFFBF
:1059F800FFFFFFFFFFFFFFFFFFFFFFFFFFFFFFFFAF
:105A0800FFFFFFFFFFFFFFFFFFFFFFFFFFFFFFFF9E
:105A1800FFFFFFFFFFFFFFFFFFFFFFFFFFFFFFFF8E
:105A2800FFFFFFFFFFFFFFFFFFFFFFFFFFFFFFFF7E
:105A3800FFFFFFFFFFFFFFFFFFFFFFFFFFFFFFFF6E
:105A4800FFFFFFFFFFFFFFFFFFFFFFFFFFFFFFFF5E
:105A5800FFFFFFFFFFFFFFFFFFFFFFFFFFFFFFFF4E
:105A6800FFFFFFFFFFFFFFFFFFFFFFFFFFFFFFFF3E
:105A7800FFFFFFFFFFFFFFFFFFFFFFFFFFFFFFFF2E
:105A8800FFFFFFFFFFFFFFFFFFFFFFFFFFFFFFFF1E
:105A9800FFFFFFFFFFFFFFFFFFFFFFFFFFFFFFFF0E
:105AA800FFFFFFFFFFFFFFFFFFFFFFFFFFFFFFFFFE
:105AB800FFFFFFFFFFFFFFFFFFFFFFFFFFFFFFFFEE
:105AC800FFFFFFFFFFFFFFFFFFFFFFFFFFFFFFFFDE
:105AD800FFFFFFFFFFFFFFFFE77DBEB9857354AEF1
:105AE80033CB13480B0702C602C602C502C502859E
:105AF80002C502C502C60B071B89446C6CF09E36B2
:105B0800D73BFFFFFFFFFFFFE77DC6FA95F564F07F
:105B18002B8A6D31F7BEFFFFFFFFFFFFFFFFFFFF7F
:105B2800FFFFFFFFFFFFFFFFFFFFFFFFFFFFFFFF7D
:105B3800FFFFFFFFFFFFFFFFFFFFFFFFFFFFFFFF6D
:105B4800FFFFFFFFFFFFFFFFFFFFFFFFFFFFFFFF5D
:105B5800FFFFFFFFFFFFFFFFFFFFFFFFFFFFFFFF4D
:105B6800FFFFFFFFFFFFFFFFFFFFFFFFFFFFFFFF3D
:105B7800FFFFFFFFFFFFFFFFFFFFFFFFFFFFFFFF2D
:105B8800FFFFFFFFFFFFFFFFFFFFFFFFFFFFFFFF1D
:105B9800FFFFFFFFFFFFFFFFFFFFFFFFFFFFFFFF0D
:105BA800FFFFFFFFFFFFFFFFFFFFFFFFFFFFFFFFFD
:105BB800FFFFFFFFFFFFFFFFFFFFFFFFFFFFFFFFED
:105BC800FFFFFFFFFFFFFFFFFFFFFFFFFFFFFFFFDD
:105BD800FFFFFFFFFFFFFFFFFFFFFFFFFFFFFFFFCD
:105BE800FFFFFFFFFFFFFFFFFFFFFFFFFFFFFFFFBD
:105BF800FFFFFFFFFFFFFFFFFFFFFFFFFFFFFFFFAD
:105C0800FFFFFFFFFFFFFFFFFFFFFFFFFFFFFFFF9C
:105C1800FFFFDF7C9DF554AE1B4802C602C502C5D6
:105C280002C502C502C502C502C60B0713481B8977
:105C38001B891B891348030602C50284028402C516
:105C48000B0733CB446D342B1B48030602C5028473
:105C58006D30FFFFFFFFFFFFFFFFFFFFFFFFFFFFAD
:105C6800FFFFFFFFFFFFFFFFFFFFFFFFFFFFFFFF3C
:105C7800FFFFFFFFFFFFFFFFFFFFFFFFFFFFFFFF2C
:105C8800FFFFFFFFFFFFFFFFFFFFFFFFFFFFFFFF1C
:105C9800FFFFFFFFFFFFFFFFFFFFFFFFFFFFFFFF0C
:105CA800FFFFFFFFFFFFFFFFFFFFFFFFFFFFFFFFFC
:105CB800FFFFFFFFFFFFFFFFFFFFFFFFFFFFFFFFEC
:105CC800FFFFFFFFFFFFFFFFFFFFFFFFFFFFFFFFDC
:105CD800FFFFFFFFFFFFFFFFFFFFFFFFFFFFFFFFCC
:105CE800FFFFFFFFFFFFFFFFFFFFFFFFFFFFFFFFBC
:105CF800FFFFFFFFFFFFFFFFFFFFFFFFFFFFFFFFAC
:105D0800FFFFFFFFFFFFFFFFFFFFFFFFFFFFFFFF9B
:105D1800FFFFFFFFFFFFFFFFFFFFFFFFFFFFFFFF8B
:105D2800FFFFFFFFFFFFFFFFFFFFFFFFFFFFFFFF7B
:105D3800FFFFFFFFFFFFFFFFFFFFFFFFFFFFFFFF6B
:105D4800FFFFFFFFFFFFFFFFFFFFFFFFF7BEAE777D
:105D580054AE134802C502C502C602C602C502C631
:105D68001B49442C75729E36BEB9D73BEF7DEFBEFA
:105D7800F7BEEFBEE77DCEFAA6377531238A030753
:105D8800030602C602C602C60306030602C57D72E2
:105D9800FFFFFFFFFFFFFFFFFFFFFFFFFFFFFFFF0B
:105DA800FFFFFFFFFFFFFFFFFFFFFFFFFFFFFFFFFB
:105DB800FFFFFFFFFFFFFFFFFFFFFFFFFFFFFFFFEB
:105DC800FFFFFFFFFFFFFFFFFFFFFFFFFFFFFFFFDB
:105DD800FFFFFFFFFFFFFFFFFFFFFFFFFFFFFFFFCB
:105DE800FFFFFFFFFFFFFFFFFFFFFFFFFFFFFFFFBB
:105DF800FFFFFFFFFFFFFFFFFFFFFFFFFFFFFFFFAB
:105E0800FFFFFFFFFFFFFFFFFFFFFFFFFFFFFFFF9A
:105E1800FFFFFFFFFFFFFFFFFFFFFFFFFFFFFFFF8A
:105E2800FFFFFFFFFFFFFFFFFFFFFFFFFFFFFFFF7A
:105E3800FFFFFFFFFFFFFFFFFFFFFFFFFFFFFFFF6A
:105E4800FFFFFFFFFFFFFFFFFFFFFFFFFFFFFFFF5A
:105E5800FFFFFFFFFFFFFFFFFFFFFFFFFFFFFFFF4A
:105E6800FFFFFFFFFFFFFFFFFFFFFFFFFFFFFFFF3A
:105E7800FFFFFFFFFFFFFFFFFFFFFFFFFFFFFFFF2A
:105E8800FFFFFFFFFFFFFFFFDF7C85732B8A02C642
:105E980002C50306030602C502C62BCA7531B6B889
:105EA800EFBDFFFFFFFFFFFFFFFFFFFFFFFFFFFF4C
:105EB800FFFFFFFFFFFFFFFFFFFFFFFFEFBD23898E
:105EC80002C603070307030703060B078DB4FFFF8A
:105ED800FFFFFFFFFFFFFFFFFFFFFFFFFFFFFFFFCA
:105EE800FFFFFFFFFFFFFFFFFFFFFFFFFFFFFFFFBA
:105EF800FFFFFFFFFFFFFFFFFFFFFFFFFFFFFFFFAA
:105F0800FFFFFFFFFFFFFFFFFFFFFFFFFFFFFFFF99
:105F1800FFFFFFFFFFFFFFFFFFFFFFFFFFFFFFFF89
:105F2800FFFFFFFFFFFFFFFFFFFFFFFFFFFFFFFF79
:105F3800FFFFFFFFFFFFFFFFFFFFFFFFFFFFFFFF69
:105F4800FFFFFFFFFFFFFFFFFFFFFFFFFFFFFFFF59
:105F5800FFFFFFFFFFFFFFFFFFFFFFFFFFFFFFFF49
:105F6800FFFFFFFFFFFFFFFFFFFFFFFFFFFFFFFF39
:105F7800FFFFFFFFFFFFFFFFFFFFFFFFFFFFFFFF29
:105F8800FFFFFFFFFFFFFFFFFFFFFFFFFFFFFFFF19
:105F9800FFFFFFFFFFFFFFFFFFFFFFFFFFFFFFFF09
:105FA800FFFFFFFFFFFFFFFFFFFFFFFFFFFFFFFFF9
:105FB800FFFFFFFFFFFFFFFFFFFFFFFFFFFFFFFFE9
:105FC800FFFFFFFFE77C7531134802C502C60307D0
:105FD80002C602C5134864F0BEB9F7FEFFFFFFFF13
:105FE800FFFFFFFFFFFFFFFFFFFFFFFFFFFFFFFFB9
:105FF800FFFFFFFFFFFFFFFFFFFFFFFF8DB402C69C
:10600800030703070307030703061B48DF7CFFFF9B
:10601800FFFFFFFFFFFFFFFFFFFFFFFFFFFFFFFF88
:10602800FFFFFFFFFFFFFFFFFFFFFFFFFFFFFFFF78
:10603800FFFFFFFFFFFFFFFFFFFFFFFFFFFFFFFF68
:10604800FFFFFFFFFFFFFFFFFFFFFFFFFFFFFFFF58
:10605800FFFFFFFFFFFFFFFFFFFFFFFFFFFFFFFF48
:10606800FFFFFFFFFFFFFFFFFFFFFFFFFFFFFFFF38
:10607800FFFFFFFFFFFFFFFFFFFFFFFFFFFFFFFF28
:10608800FFFFFFFFFFFFFFFFFFFFFFFFFFFFFFFF18
:10609800FFFFFFFFFFFFFFFFFFFFFFFFFFFFFFFF08
:1060A800FFFFFFFFFFFFFFFFFFFFFFFFFFFFFFFFF8
:1060B800FFFFFFFFFFFFFFFFFFFFFFFFFFFFFFFFE8
:1060C800FFFFFFFFFFFFFFFFFFFFFFFFFFFFFFFFD8
:1060D800FFFFFFFFFFFFFFFFFFFFFFFFFFFFFFFFC8
:1060E800FFFFFFFFFFFFFFFFFFFFFFFFFFFFFFFFB8
:1060F800FFFFFFFFFFFFFFFFFFFFFFFFFFFFFFFFA8
:10610800FFFF8DF41B4802C503060307030602C5FB
:10611800238985B3DF7CFFFFFFFFFFFFFFFFFFFF42
:10612800FFFFFFFFFFFFFFFFFFFFFFFFFFFFFFFF77
:10613800FFFFFFFFFFFFFFFFFFFFB6B803060306E1
:1061480003070307030602C6030602C62BCAE77D38
:10615800FFFFFFFFFFFFFFFFFFFFFFFFFFFFFFFF47
:10616800FFFFFFFFFFFFFFFFFFFFFFFFFFFFFFFF37
:10617800FFFFFFFFFFFFFFFFFFFFFFFFFFFFFFFF27
:10618800FFFFFFFFFFFFFFFFFFFFFFFFFFFFFFFF17
:10619800FFFFFFFFFFFFFFFFFFFFFFFFFFFFFFFF07
:1061A800FFFFFFFFFFFFFFFFFFFFFFFFFFFFFFFFF7
:1061B800FFFFFFFFFFFFFFFFFFFFFFFFFFFFFFFFE7
:1061C800FFFFFFFFFFFFFFFFFFFFFFFFFFFFFFFFD7
:1061D800FFFFFFFFFFFFFFFFFFFFFFFFFFFFFFFFC7
:1061E800FFFFFFFFFFFFFFFFFFFFFFFFFFFFFFFFB7
:1061F800FFFFFFFFFFFFFFFFFFFFFFFFFFFFFFFFA7
:10620800FFFFFFFFFFFFFFFFFFFFFFFFFFFFFFFF96
:10621800FFFFFFFFFFFFFFFFFFFFFFFFFFFFFFFF86
:10622800FFFFFFFFFFFFFFFFFFFFFFFFFFFFFFFF76
:10623800FFFFFFFFFFFFFFFFFFFFFFFFFFFFDF7C09
:106248004C6D02C502C60307030602C51B4885B389
:10625800E77DFFFFFFFFFFFFFFFFFFFFFFFFFFFFE0
:10626800FFFFFFFFFFFFFFFFFFFFFFFFFFFFFFFF36
:10627800FFFFFFFFFFFFFFFFDF3B1B4902C60307CE
:10628800030702C603061B890B07030602C554AEA3
:10629800FFFFFFFFFFFFFFFFFFFFFFFFFFFFFFFF06
:1062A800FFFFFFFFFFFFFFFFFFFFFFFFFFFFFFFFF6
:1062B800FFFFFFFFFFFFFFFFFFFFFFFFFFFFFFFFE6
:1062C800FFFFFFFFFFFFFFFFFFFFFFFFFFFFFFFFD6
:1062D800FFFFFFFFFFFFFFFFFFFFFFFFFFFFFFFFC6
:1062E800FFFFFFFFFFFFFFFFFFFFFFFFFFFFFFFFB6
:1062F800FFFFDF7CFFFFFFFFFFFFFFFFFFFFFFFF49
:10630800FFFFFFFFFFFFFFFFFFFFFFFFFFFFFFFF95
:10631800FFFFFFFFFFFFFFFFFFFFFFFFFFFFFFFF85
:10632800FFFFFFFFFFFFFFFFFFFFFFFFFFFFFFFF75
:10633800FFFFFFFFFFFFFFFFFFFFFFFFFFFFFFFF65
:10634800FFFFFFFFFFFFFFFFFFFFFFFFFFFFFFFF55
:10635800FFFFFFFFFFFFFFFFFFFFFFFFFFFFFFFF45
:10636800FFFFFFFFFFFFFFFFFFFFFFFFFFFFFFFF35
:10637800FFFFFFFFFFFFFFFFFFFFFFFFB6B8234947
:1063880002C50307030702C6030664F0DF7CFFFFAC
:10639800FFFFFFFFFFFFFFFFFFFFFFFFFFFFFFFF05
:1063A800FFFFFFFFFFFFFFFFFFFFFFFFFFFFFFFFF5
:1063B800FFFFFFFFFFFFEFBE33CB02C50307030755
:1063C80002C61B48B6B8EFBEC6FA238902C602C683
:1063D800BEB9FFFFFFFFFFFFFFFFFFFFFFFFFFFF4C
:1063E800FFFFFFFFFFFFFFFFFFFFFFFFFFFFFFFFB5
:1063F800FFFFFFFFFFFFFFFFFFFFFFFFFFFFFFFFA5
:10640800FFFFFFFFFFFFFFFFFFFFFFFFFFFFFFFF94
:10641800FFFFFFFFFFFFFFFFFFFFFFFFFFFFFFFF84
:10642800FFFFFFFFFFFFFFFFFFFFFFFFFFFFFFFF74
:1064380085B30B06442CC6FAFFFFFFFFFFFFFFFFE3
:10644800FFFFFFFFFFFFFFFFFFFFFFFFFFFFFFFF54
:10645800FFFFFFFFFFFFFFFFFFFFFFFFFFFFFFFF44
:10646800FFFFFFFFFFFFFFFFFFFFFFFFFFFFFFFF34
:10647800FFFFFFFFFFFFFFFFFFFFFFFFFFFFFFFF24
:10648800FFFFFFFFFFFFFFFFFFFFFFFFFFFFFFFF14
:10649800FFFFFFFFFFFFFFFFFFFFFFFFFFFFFFFF04
:1064A800FFFFFFFFFFFFFFFFFFFFFFFFFFFFFFFFF4
:1064B800FFFFFFFFFFFFFFFFFFFF8DB4030602C6CC
:1064C8000307030702C533CBBEB9FFFFFFFFFFFF7A
:1064D800FFFFFFFFFFFFFFFFFFFF9DF53C2B5CAFBA
:1064E80095F5FFFFFFFFFFFFFFFFFFFFFFFFFFFF28
:1064F800FFFFFFFFFFFF54AF02C5030703070306B3
:106508000B07BEB9FFFFFFFFFFFF5CEF02C502C527
:106518007D72FFFFFFFFFFFFFFFFFFFFFFFFFFFF92
:10652800FFFFFFFFFFFFFFFFFFFFFFFFFFFFFFFF73
:10653800FFFFFFFFFFFFFFFFFFFFFFFFFFFFFFFF63
:10654800FFFFFFFFFFFFFFFFFFFFFFFFFFFFFFFF53
:10655800FFFFFFFFFFFFFFFFFFFFFFFFFFFFFFFF43
:10656800FFFFFFFFFFFFFFFFFFFFFFFFFFFF9E365D
:1065780002C6030602848DB4FFFFFFFFFFFFFFFF83
:10658800FFFFFFFFFFFFFFFFFFFFFFFFFFFFFFFF13
:10659800FFFFFFFFFFFFFFFFFFFFFFFFFFFFFFFF03
:1065A800FFFFFFFFFFFFFFFFFFFFFFFFFFFFFFFFF3
:1065B800FFFFFFFFFFFFFFFFFFFFFFFFFFFFFFFFE3
:1065C800FFFFFFFFFFFFFFFFFFFFFFFFFFFFFFFFD3
:1065D800FFFFFFFFFFFFFFFFFFFFFFFFFFFFFFFFC3
:1065E800FFFFFFFFFFFFFFFFFFFFFFFFFFFFFFFFB3
:1065F800FFFFFFFFFFFFFFFF6D3102C50306030723
:1066080002C602C67531EFBEFFFFFFFFFFFFFFFFA7
:10661800FFFFFFFFFFFFFFFFFFFF2BCB0285028479
:10662800342BFFFFFFFFFFFFFFFFFFFFFFFFFFFF11
